:100000000C942A000C9447000C9447000C94470071
:100010000C9447000C9447000C9447000C94470044
:100020000C9447000C9447000C9447000C94470034
:100030000C9447000C9447000C9447000C94470024
:100040000C9447000C9447000C9447000C94470014
:100050000C94470011241FBECFE5D4E0DEBFCDBF16
:1000600010E0A0E6B0E0E6E4F1E002C005900D92F9
:10007000A036B107D9F710E0A0E6B0E001C01D92AC
:10008000A036B107E1F70E9470000C94A1000C9417
:10009000000010B88CE080B9089584EA86BF06B6E7
:1000A00007FEFDCF81B1887F8830E1F7089583B9DD
:1000B00084E886BF06B607FEFDCF81B1887F883110
:1000C000E1F7089583B984E886BF06B607FEFDCF41
:1000D00081B1887F8832E1F7089584E986BF089569
:1000E0000E9449000E944D008FEF99E6A8E18150DF
:1000F0009040A040E1F700C0000080E20E9457005D
:100100008FEF99E6A8E181509040A040E1F700C050
:10011000000081E40E9462008FEF99E6A8E181501F
:100120009040A040E1F700C000000E946D008FEFFA
:1001300099E6A8E181509040A040E1F700C000009E
:06014000D1CFF894FFCFBF
:00000001FF
