:100000000C942A000C9447000C9447000C94470071
:100010000C9447000C9447000C9447000C94470044
:100020000C9447000C9447000C9447000C94470034
:100030000C9447000C9447000C9447000C94470024
:100040000C9447000C9447000C9447000C94470014
:100050000C94470011241FBECFE5D4E0DEBFCDBF16
:1000600010E0A0E6B0E0ECEDF0E002C005900D92EB
:10007000A036B107D9F710E0A0E6B0E001C01D92AC
:10008000A036B107E1F70E9461000C946C000C945B
:10009000000082B9089584EC86BF06B607FEFDCF46
:1000A00081B1887F8038E1F783B1089594EC04C072
:1000B00096BF06B607FEFDCF81B1887F8036C1F7B7
:1000C00008958FEF87BB80E20E9449000E9456008E
:0C00D0000E944B0088BBFACFF894FFCFD1
:00000001FF
